:100000000C945D000C9485000C9485000C94890C74
:100010000C94890C0C94890C0C9485000C9485002C
:100020000C9485000C9485000C9485000C94430E70
:100030000C9485000C9485000C9485000C9485002C
:100040000C943F0C0C9485000C94340B0C940E0B08
:100050000C9485000C9485000C9485000C9485000C
:100060000C94930C0C9485000000000024002700E1
:100070002A0000000000250028002B0004040404CE
:100080000404040402020202020203030303030342
:10009000010204081020408001020408102001021F
:1000A00004081020000000080002010000030407FB
:1000B0000000000000000000A51411241FBECFEFB7
:1000C000D8E0DEBFCDBF25E0AEE5B2E001C01D92B5
:1000D000AC34B207E1F712E0A0E0B1E0E2E6FEE204
:1000E00002C005900D92AE35B107D9F710E0CDE50D
:1000F000D0E004C02197FE010E948515CC35D107C0
:10010000C9F70E9457110C942F170C940000CF923E
:10011000DF92FF920F931F93CF93DF938C01F62E04
:100120006A01C0E0D0E0F801868DC81798F4F801A4
:10013000EC0FF11DEC0FF11D82819381DC01ED913B
:10014000FC910280F381E02DA6016F2D0995D82B3B
:10015000CF5FE9CF8D2FDF91CF911F910F91FF904E
:10016000DF90CF9008950895089580E00895FC01F0
:1001700012821086158213821186168214821286CC
:100180001782089580E008950895FC011382128279
:100190000895FC01E65BFF4F2081222321F01082AD
:1001A00031968FEF808308959C018EEE860F82300A
:1001B000C8F446305105A1F0D901A65BBF4F8C9120
:1001C000882389F0E62FF0E0E35CFB4F80818630E6
:1001D00049F41C92F901E55BFF4F8FEF808302C069
:1001E00081E0089580E008959A01A091EC03B09118
:1001F000ED03ED91FC9111970480F581E02D462FE0
:10020000682FCD010995811104C080E991E00C941B
:10021000A3100895CF93DF93EB01A091EC03B0916D
:10022000ED03ED91FC9111970280F381E02DAB017C
:10023000682FCD010995811109C0CF37D10531F063
:1002400088EA91E0DF91CF910C94A310DF91CF91D8
:1002500008956250623130F481E00E94CC0F81E059
:100260000C94CC0F08956250623160F480E00E94DB
:10027000CC0F81E00E94CC0F8BE00E94CC0F81E07C
:100280000C94CC0F0895633039F08BEF860F8230D9
:1002900018F06950633030F483E00E94CC0F88E09E
:1002A0000C94CC0F08956E50663030F482E00E94BA
:1002B000CC0F8AE00C94CC0F0895CF9380EF0E946E
:1002C000CC0F8AE60E94CC0FC2EFC63010F48C2F00
:1002D00001C08FE70E94CC0FCF5FC630B1F787EF28
:1002E0000E94CC0F81E0CF910895693611F40C94EF
:1002F0005D0180E008956251623030F486E00E9432
:10030000CC0F81E00C94CC0F089562506C3030F427
:1003100084E00E94CC0F8EE00C94CC0F08950F93D4
:100320001F93CF93DF939EEF980F923190F4C82FD5
:10033000D0E0FE01E35CFB4F9081913051F4072F38
:10034000162F0E94660BCC0FDD1FCF5ADB4F188390
:100350000983DF91CF911F910F910895CF938EEF75
:10036000860F823150F44130510539F4E62FF0E028
:10037000E35CFB4F80818F3711F480E00AC0C62F09
:1003800060E08C2F0E94660B61E08C2F0E94B20B04
:1003900081E0CF910895BF92CF92DF92EF92FF92CA
:1003A0000F931F93CF93DF9300D0CDB7DEB7833089
:1003B00008F081C0282F220F220F220F285F25313D
:1003C00008F024E1B62EF82EE82EEE0CEE0CEE0C22
:1003D00030E0CC24C394E21610F58EEF8E0D8231FE
:1003E000D8F40E2D10E0F801E35CFB4F90819230C1
:1003F00098F4DD24D3948C2D8B2109F4D12C000F9B
:10040000111F913009F043C03C29F801EF5AFB4F0E
:100410008D2D90E091838083CC0CE394DCCFF110A0
:100420000AC03C7FF8948BB1632F609568233B2111
:10043000632B6BB92AC081E0F8121AC02B2D23233D
:10044000F89495B1832F8F7380958923922F9F7392
:10045000892B85B988B122952695269523703295EA
:1004600036953695337030958323822B88B90DC02D
:100470003F70F89488B1632F660F660F609568230C
:100480003B21330F330F632B68B9789414C0DD2000
:1004900009F4BBCFF801EF5AFB4F8081918101979E
:1004A00009F4B3CF62E08E2D2A8339830E94B20B08
:1004B0002A813981AACF0F900F90DF91CF911F91A0
:1004C0000F91FF90EF90DF90CF90BF9008950F9322
:1004D0001F93CF932EEF260F2231E0F5362F36955E
:1004E00036953695262F27704115510519F04B305A
:1004F000510519F5C62FFC01E30FF11D01E010E0D5
:10050000C80101C0880F2A95EAF79085892B80875A
:10051000452B29F460E08C2F0E94B20B0CC062E0E6
:100520008C2F0E94B20BEC2FF0E0EE0FFF1FEF5A62
:10053000FB4F1183008381E00EC0FC01E30FF11D2E
:1005400081E090E001C0880F2A95EAF780959085B8
:100550008923808780E0CF911F910F9108958F921A
:100560009F92AF92BF92CF92DF92EF92FF920F9342
:100570001F93CF93DF931F92CDB7DEB7982F4B0118
:10058000843108F005C1082F10E0F801E35CFB4F4F
:100590008081833009F491C0843009F0F9C0925011
:1005A0009C3008F0F5C080910C0590910D05F80184
:1005B0003197EE0FFF1FE80FF91FA080B180A11443
:1005C000B10409F4DEC0603282E078070CF03EC06E
:1005D00077FD05C0653B710524F4DB0104C0A0E094
:1005E00001C0A4EBB0E0F501818128E830E06901A9
:1005F000C81AD10887FDD394CC0CDD1CCC0CDD1CB3
:100600000D2C000CEE08FF08828128E532E0281B43
:10061000310987FD3395220F331F220F331FA901A4
:10062000330F660B770B9A01AB012C193D094E096C
:100630005F090E94F61624EB30E040E050E00E9493
:10064000CC16C20ED31EE41EF51E01C06B01F501CF
:1006500030813C3008F095C0218188E890E0821B11
:10066000910927FD9395880F991F880F991FC81628
:10067000D90684F0828148E552E0481B510987FD84
:100680005395440F551F440F551FC6014C155D056A
:100690000CF4CA010297880F991F4FB7F894232FC3
:1006A00030E0F901EE0FFF1F2E0F3F1FF901E15A55
:1006B000FD4F928381834FBF64C0933049F08BEF2D
:1006C000890F823028F087EF890F833008F060C0EF
:1006D00061E0892F99830E94B20B99818114910462
:1006E00011F460E005C0FFEF8F16910429F461E07A
:1006F000892F0E94660B45C0F801EC55FF4FE4912D
:10070000E330F9F048F4E130B9F0E230A1F584B516
:10071000806284BD88BC35C0E730E9F0E83019F16B
:10072000E43049F58091800080628093800090924F
:100730008B0080928A0025C084B5806884BD87BC08
:1007400020C0809180008068809380009092890012
:100750008092880016C08091B00080688093B000BD
:100760008092B3000EC08091B00080628093B00090
:100770008092B40006C080E8881691040CF0B7CFD0
:10078000B0CF000F111FF801EF5AFB4F918280820A
:100790000F90DF91CF911F910F91FF90EF90DF901D
:1007A000CF90BF90AF909F908F900895F9016F36D2
:1007B000E9F44230F8F0618170E0423091F08281DA
:1007C00020E8829FC0011124682B792B433049F027
:1007D000838190E090E4899F902D88271124682BD5
:1007E000792B80810E94AF0281E00895693611F46F
:1007F0000C945D0180E008951F93CF93DF93C09127
:100800008F04D0919004833018F5C80FD11D6A83EE
:10081000672BF1F04885811103C029B12C7F10C0EE
:10082000813051F453B196B160E4969F9001112448
:10083000952F9F73292B04C026B12C7326952695DE
:100840002423122F1423612F70E00E9423111D8393
:10085000DF91CF911F910895CF9343305105C9F493
:10086000633041F08BEF860F823020F087EF860FE8
:10087000833078F4C62F61E08C2F0E94B20B61E0C8
:100880008C2F0E94B20B60E08C2F0E94660B81E0DF
:1008900001C080E0CF910895CF93FC01663060F5F0
:1008A00082819381452B71F421E030E002C0220F58
:1008B000331F6A95E2F72095309528233923338337
:1008C00022831AC041E050E0062E02C0440F551F9B
:1008D0000A94E2F79C01242B352B338322838091E9
:1008E0007904811109C0C62F862F0E94EE0BBC012E
:1008F0008C2FCF910C940C11CF910895CF93FC01C4
:10090000862F62EF680F6630F0F44230510561F4D3
:10091000C82FCF0141E050E00E944C0460E08C2FD2
:100920000E94B20B81E010C021E030E002C0220F33
:10093000331F6A95E2F720953095828193812823B1
:1009400039233383228380E0CF910895AB01682F50
:100950008091EE039091EF030C944C04CF93C0E090
:1009600082EF8C0F863010F462E005C08EEF8C0FA2
:10097000823120F461E08C2F0E94D90FCF5FC43107
:1009800079F78DE994E0CF910C94040ACF93DF932B
:10099000EC01C60FD11DC60FD11DBA91AA911097B7
:1009A00099F0EC91F0E0CF01880F991FE80FF91F43
:1009B000E15AFD4F908196FF02C09F7B9083CD014D
:1009C0000E94201619821882DF91CF9108950F930B
:1009D0001F93CF938C01C0E08EEF8C0F8C3020F4EE
:1009E0006C2FC8010E94C604CF5FC431A9F7CF9114
:1009F0001F910F9108950F931F93CF93DF9300D012
:100A000000D000D0CDB7DEB770E0FB01EE0FFF1FC6
:100A10008F01080F191FD8019E918E918D010097AB
:100A200069F583E090E02D833E834B835C8369838B
:100A30007A830E948B15E0915E022D813E814B816D
:100A40005C8169817A81EC3098F4F1E0FE0FF093DB
:100A50005E02DC01EC93F0E0DF01AA0FBB1FEA0F9E
:100A6000FB1FE15AFD4FA8EBBBE0B283A18303C09B
:100A7000EFEFDC01EC93F80191838083DC01EC91D2
:100A8000F0E0DF01AA0FBB1FEA0FFB1FE15AFD4F89
:100A9000A081A6FF02C0AF7BA08357FF06C037FF2F
:100AA00004C020E639E040E252E026960FB6F89402
:100AB000DEBF0FBECDBFDF91CF911F910F910C9480
:100AC000C10DDF92EF92FF920F931F93CF93DF93AD
:100AD000603779F4453068F0F901D0804EEF4D0D64
:100AE0004C3038F4ED2DF0E0E35CFB4F40814F37A4
:100AF00011F480E01DC0F9017C018181C28190E880
:100B0000C99FE0011124C80FD11D83810481E0E851
:100B10000E9F80011124080F111D64E08D2D0E948D
:100B2000D90F9801AE016D2DC7010E94FB0481E031
:100B3000DF91CF911F910F91FF90EF90DF9008957B
:100B40002EEF260F2C3068F44430510541F42FEF7E
:100B50003FEF4FEF5FEF0E94FB0481E008950E949A
:100B6000C60480E00895CF93DF93FC01EC01C957E0
:100B7000DF4F81E08883158216821782DF01189685
:100B8000CF01885B9F4F1D92A817B907E1F71C9210
:100B9000DF01A75BBF4F1D921C92EC56FF4F0190E7
:100BA000F081E02D309709F009951882DF91CF91FF
:100BB0000895AF92BF92CF92DF92EF92FF920F9380
:100BC0001F93CF93DF93EC01D62E7A01122F4F3F64
:100BD0008FEF580711F181E080931F036093410369
:100BE0001092200310924203642F80EE93E00E9443
:100BF000A409802F0E94AF10FE01E45BFF4F01901B
:100C0000F081E02DE230F10550F0EE0FFF1FEE0F06
:100C1000FF1F35973197F1F702C0E12CF12C80913D
:100C20001E038111FCCFE12F113208F0E0E281E0D8
:100C300080931E0380931D039FEF90931C031092DB
:100C40001B039E0F90931A038093F9028091F9027F
:100C50009D2D990F892B8093F9028091F8028130A4
:100C600061F41092F8028091F9028093BB008091A8
:100C7000BC0083FDF8CF85EC01C085EE8093BC00FD
:100C800080911E038130E1F380911B038E1710F4D5
:100C9000E0911B038AEF92E043E852E0BA01262F6D
:100CA000241B2E1738F4DC012D91CD01DB012D938F
:100CB000BD01F5CF1092A402E093A302A12EB12CA6
:100CC000F0E0AE16BF061CF489EB91E005C0EA1512
:100CD000FB0524F486ED91E00E94A310DAA6EBA6B2
:100CE0006E01BCE2CB0ED11CE12CF12CEA14FB040A
:100CF0008CF49091A3028091A402981759F080EE91
:100D000093E00E945809F60181936F01FFEFEF1AFB
:100D1000FF0AECCFAE01465D5F4F62E0610F87E7EF
:100D2000DF91CF911F910F91FF90EF90DF90CF90C7
:100D3000BF90AF900C946A10AF92BF92CF92DF92A7
:100D4000EF92FF920F931F93CF93DF931F92CDB734
:100D5000DEB77901663721F0683709F409C167C148
:100D6000FC01E65BFF4F1081112309F401C1F90179
:100D70000181202F287105FF03C082EF91E05CC044
:100D8000F701608131E006FB002700F903272830D6
:100D900079F160F421114CC130931F03609341033A
:100DA000109220031092420302E007C0203109F4A0
:100DB0003BC0283109F481C03BC1041788F4F70116
:100DC000E00FF11D81816081F0E88F9F601911248F
:100DD00080EE93E049830E94A4090E5F4981EDCF24
:100DE00081E00E94AF1083E191E00197F1F720C10B
:100DF000F70122813381463071F4F0E83F9FA00172
:100E00001124420F511DF70135812481F0E83F9FE5
:100E10002019112406C040E8349F201911244FEFF7
:100E20005FEF0E94D90504C1DC01A55BBF4F2C9187
:100E300027302CF082E192E00E94A310F9C0F70164
:100E400032817381463079F440E8749FF0011124B7
:100E50006F01C30ED11CF70135814481F0E83F9F3B
:100E60004019112408C0432F50E8759F40191124E0
:100E7000CC24CA94DC2C2F5F2C93022E000C330B55
:100E800055E0529FD001539FB00D1124A80FB91FF8
:100E900012966C9312971496DC92CE9213972F5F52
:100EA0003F4F529FB001539F700D1124FC01E60F7C
:100EB000F71F408316960C93BBC06C017BE4C70EF2
:100EC000D11CF601308113161CF08FEF8083B0C067
:100ED00020E0E32E032E000CFF0875E0422F50E0C7
:100EE000E416F50674F0749FF001759FF00D11245F
:100EF000E80FF91F4281461302C065E030C02F5F42
:100F0000EDCF20E0FACF283048F5FA0131966E9FF8
:100F1000D0016F9FB00D1124A80FB91F12967C91BC
:100F20001297649FF001659FF00D11245F01A80ED8
:100F3000B91EF501728313964D915C9114975483F9
:100F40004383AC01F5E02F9F400D511D1124FA01A0
:100F50007285758316964C91F50146832F5F422F5B
:100F600050E0E416F5067CF63150F601308360C09F
:100F7000F70140812181F0E82F9F90011124240F77
:100F8000311D2115310529F0FC01E45BFF4F318350
:100F900020838C01065B1F4FF8018081811144C0C2
:100FA000E12CF12C8EEE8E0D823070F4F701E35CB3
:100FB000FB4F80818F37C1F166E08E2D0E94D90FE3
:100FC00066E08E2D0E94B20BFFEFEF1AFF0A24E1BC
:100FD000E216F10439F781E0F80180831092A4024F
:100FE0001092A302109220031092420310921E034B
:100FF00080931D031092F80261E082E10E94660B6B
:1010000061E083E10E94660B8091B9008E7F80933E
:10101000B9008091B9008D7F8093B90088E48093F6
:10102000B80085E48093BC00F801108101C010E095
:10103000812F0F90DF91CF911F910F91FF90EF9033
:10104000DF90CF90BF90AF900895FC01918D828D7D
:10105000981761F0828DDF01A80FB11D5D968C910C
:10106000928D9F5F9F73928F90E008958FEF9FEF17
:101070000895FC01918D828D981731F0828DE80FD3
:10108000F11D858D90E008958FEF9FEF0895FC018D
:10109000918D228D892F90E0805C9F4F821B91095A
:1010A0008F739927089583E493E00E94470821E015
:1010B000892B09F420E0822F0895FC01848DDF0143
:1010C000A80FB11DA35ABF4F2C91848D90E00196BB
:1010D0008F739927848FA689B7892C93A089B189AA
:1010E0008C9180648C93938D848D981306C00288B4
:1010F000F389E02D80818F7D80830895EF92FF92A8
:101100000F931F93CF93DF93EC0181E0888F9B8D2A
:101110008C8D981305C0E889F989808185FD24C0EC
:10112000F62E0B8D10E00F5F1F4F0F731127E02E6F
:101130008C8DE8120CC00FB607FCFACFE889F9894C
:10114000808185FFF5CFCE010E945D08F1CF8B8DA8
:10115000FE01E80FF11DE35AFF4FF0820B8FEA8981
:10116000FB898081806207C0EE89FF896083E889FE
:10117000F98980818064808381E090E0DF91CF9164
:101180001F910F91FF90EF900895CF93DF93EC01A3
:10119000888D8823C9F0EA89FB89808185FD05C097
:1011A000A889B9898C9186FD0FC00FB607FCF5CFD1
:1011B000808185FFF2CFA889B9898C9185FFEDCF19
:1011C000CE010E945D08E7CFDF91CF91089580E0C6
:1011D00090E0892B29F00E94530881110C940000A3
:1011E00008953FB7F8948091F0029091F102A09198
:1011F000F202B091F30226B5A89B05C02F3F19F06B
:101200000196A11DB11D3FBFBA2FA92F982F882786
:10121000820F911DA11DB11DBC01CD0142E0660FE1
:10122000771F881F991F4A95D1F7089585ED809300
:10123000BC008091BC0084FDFCCF10921E03089579
:101240004091C802262F30E0240F311D2132310594
:10125000DCF420911E032430C9F4FC0180E090E00E
:10126000861758F43091C8022191DC01AA55BD4F70
:10127000A30FB11D2C930196F3CF8091C802680F84
:101280006093C80280E0089581E0089582E00895A7
:101290000895E091A4028091A302E81730F4F0E0F1
:1012A000ED57FD4F808190E008958FEF9FEF0895F7
:1012B0009091A4028091A302981750F4E92FF0E0D6
:1012C000ED57FD4F208130E09F5F9093A40202C054
:1012D0002FEF3FEFC90108958091A30290E0209184
:1012E000A402821B91090895CF92DF92EF92FF92A0
:1012F0000F931F93CF93DF937C01262F972F8A01A3
:1013000080911F03882391F0C62FD72F6E01C40E42
:10131000D51ECC15DD0571F06991D701ED91FC91D9
:101320000190F081E02DC7010995F3CF642F822F42
:101330000E942009C801DF91CF911F910F91FF906A
:10134000EF90DF90CF900895CF93DF931F92CDB7AA
:10135000DEB7698320911F032223D1F0209142033D
:10136000203240F021E030E0FC013383228380E032
:1013700090E015C080912003E82FF0E0EF5DFC4F76
:10138000998190838F5F809320038093420305C0EF
:1013900061E0CE0101960E94200981E090E00F906B
:1013A000DF91CF9108952FB7F8944091F4025091B6
:1013B000F5026091F6027091F7022FBFFC0146839F
:1013C00057836087718723E130E033872287089550
:1013D0006A37A9F4423098F0F90140812181F0E8A0
:1013E0002F9F90011124240F311D2115310511F477
:1013F00021E030E0FC013387228781E0089580E01E
:10140000089580E0089508950F931F93CF938C0162
:10141000C0E0F801868DC81780F4F801EC0FF11DCB
:10142000EC0FF11D82819381DC01ED91FC9106802E
:10143000F781E02D0995CF5FECCFCF911F910F91F0
:1014400008958F929F92AF92BF92CF92DF92EF92C8
:10145000FF920F931F93CF93DF937C01EB016C01FD
:1014600082E0C80ED11C4701E5E08E0E911C00E021
:1014700010E0F60141916F0150E060E070E02AE079
:10148000CE010E94310F5C01E881F9810190F08169
:10149000E02D6EE2CE0109958A0D9B1D080F191FE4
:1014A000C814D90431F7F701458150E060E070E0DD
:1014B0002AE0CE010E94310F800F911FDF91CF9162
:1014C0001F910F91FF90EF90DF90CF90BF90AF9062
:1014D0009F908F900895CF92DF92FF920F931F936A
:1014E000CF93DF938C01D62FF42E69016B3609F46C
:1014F00045C06D3609F06FC0411102C080E086C062
:10150000D901CC91C431D0F780EF0E94CC0F8EE688
:101510000E94CC0F8C2F0E94CC0FD0E0FE01E35C28
:10152000FB4F80810E94CC0FCC0FDD1FCF5ADB4FC9
:101530000990D881C02D8C2F8F770E94CC0FCE01BF
:101540008078892B41F0CE01880F892F881F990B55
:101550008F770E94CC0FCE018827907C892B49F091
:10156000CE01990F880B990F982F881F8F770E94B3
:10157000CC0F87EF0E94CC0F81E048C080EF0E9423
:10158000CC0F8CE60E94CC0F8DE3C82E84E0D82EC1
:10159000D0E0F60181916F018F3739F48FE70E9417
:1015A000CC0FDF5FD431A9F7E4CFC0E0F801868D1E
:1015B000C817A0F7F801EC0FF11DEC0FF11D8281A7
:1015C0009381DC01ED91FC910190F081E02D6D2F74
:1015D0000995CF5FEBCFC0E0F801868DC81708F002
:1015E0008DCFF801EC0FF11DEC0FF11D828193817D
:1015F000DC01ED91FC910480F581E02D96014F2DE9
:101600006D2F0995811102C0CF5FE6CFDF91CF9199
:101610001F910F91FF90DF90CF9008951F920F922E
:101620000FB60F9211242F933F934F935F936F93B5
:101630007F938F939F93AF93BF93EF93FF9383E435
:1016400093E00E945D08FF91EF91BF91AF919F9150
:101650008F917F916F915F914F913F912F910F905B
:101660000FBE0F901F9018951F920F920FB60F92FA
:1016700011242F938F939F93EF93FF93E091530344
:10168000F09154038081E0915903F0915A0382FD57
:1016900012C0908180915C038F5F8F7320915D03F6
:1016A000821751F0E0915C03F0E0ED5BFC4F958F09
:1016B00080935C0301C08081FF91EF919F918F9196
:1016C0002F910F900FBE0F901F90189590E0FC0186
:1016D000EC55FF4F3491FC01E057FF4F2491FC0182
:1016E000E458FF4FE491EE2309F43BC0332339F172
:1016F000333091F038F43130A9F0323001F584B54F
:101700008F7D12C0373091F03830A1F03430B9F409
:10171000809180008F7D03C0809180008F778093BF
:1017200080000DC084B58F7784BD09C08091B00062
:101730008F7703C08091B0008F7D8093B000F0E080
:10174000EE0FFF1FEE58FF4FA591B4918FB7F8949D
:10175000EC91611103C020952E2301C02E2B2C93F8
:101760008FBF0895CF93DF9390E0FC01E057FF4FC8
:101770002491FC01E458FF4F8491882361F190E0AB
:10178000880F991FFC01E859FF4FC591D491FC01C6
:10179000EE58FF4FA591B491611109C09FB7F8941D
:1017A0008881209582238883EC912E230BC06230A0
:1017B00061F49FB7F8943881822F809583238883C2
:1017C000EC912E2B2C939FBF06C08FB7F894E88125
:1017D0002E2B28838FBFDF91CF9108958E3008F094
:1017E0008E508770806480937C0080917A00806442
:1017F00080937A0080917A0086FDFCCF80917800FA
:101800002091790090E0922B08958F929F92AF9251
:10181000BF92CF92DF92EF92FF926B017C010E9408
:10182000F1084B015C01C114D104E104F104F1F0B1
:101830000E94F108DC01CB0188199909AA09BB09AA
:10184000883E9340A105B10570F321E0C21AD1088A
:10185000E108F10888EE880E83E0981EA11CB11CF7
:10186000C114D104E104F10419F7DDCFFF90EF902A
:10187000DF90CF90BF90AF909F908F9008951F9270
:101880000F920FB60F9211242F933F938F939F9334
:10189000AF93BF938091F4029091F502A091F6026C
:1018A000B091F7023091EF0223E0230F2D3720F49F
:1018B0000196A11DB11D05C026E8230F0296A11DAA
:1018C000B11D2093EF028093F4029093F502A09350
:1018D000F602B093F7028091F0029091F102A0918C
:1018E000F202B091F3020196A11DB11D8093F002A6
:1018F0009093F102A093F202B093F302BF91AF91E3
:101900009F918F913F912F910F900FBE0F901F903D
:1019100018951F920F920FB60F9211240F900FBEC1
:101920000F901F9018951F920F920FB60F921124CF
:101930002F933F934F935F936F937F938F939F93D7
:10194000AF93BF93EF93FF938091B900887F803668
:1019500009F49CC068F5883209F45BC090F48031CA
:1019600009F454C038F4882309F4F6C0883009F427
:101970004DC0F6C0883109F44CC0803209F45DC016
:10198000EFC0803409F468C048F4803309F455C0CE
:10199000883309F0E5C080931C03D8C0803509F472
:1019A0004FC0883509F45DC0883409F0D9C0D6C06D
:1019B000883909F4C7C0A8F4883709F467C038F437
:1019C000883609F463C0803709F460C0C9C088381C
:1019D00009F4B8C0803909F45FC0803809F0C0C08C
:1019E0005BC0803B09F486C038F4803A09F466C0D5
:1019F000883A09F47FC0B4C0803C09F4A7C0883C91
:101A000009F4A4C0883B09F48AC0AAC08091F902F5
:101A100010C090911B0380911A03981770F5E09104
:101A20001B0381E08E0F80931B03F0E0E650FD4F17
:101A300080818093BB0085EC86C080931C038EC0A0
:101A4000E0911B0381E08E0F80931B038091BB000C
:101A5000F0E0E650FD4F808390911B0380911A03C4
:101A60006EC0E0911B0381E08E0F80931B03809179
:101A7000BB00F0E0E650FD4F808380911D03811193
:101A80006DC081E08093F80284EA61C083E08093B6
:101A90001E031092EC02CFCF8091EC02803208F04E
:101AA00051C0E091EC0281E08E0F8093EC028091B6
:101AB000BB00F0E0E453FD4F8083BDCF85EC809305
:101AC000BC0010921E038091EC02803230F4E09151
:101AD000EC02F0E0E453FD4F10826091EC0270E004
:101AE000E091CA02F091CB028CEC92E00995109241
:101AF000EC0236C084E080931E031092C90210925B
:101B0000C802E091C602F091C70209958091C8020F
:101B1000811105C081E08093C8021092A602E09175
:101B2000C90281E08E0F8093C902F0E0EA55FD4FB3
:101B300080818093BB009091C9028091C802981760
:101B400008F479CF85E88093BC000AC085EC8093C7
:101B5000BC0010921E0304C010921C030E941609C0
:101B6000FF91EF91BF91AF919F918F917F916F9175
:101B70005F914F913F912F910F900FBE0F901F904B
:101B80001895DF92EF92FF920F931F93CF93DF93FD
:101B9000EC01D62E7A01890188818C3008F06AC068
:101BA00061E08D2D0E94B20B8881E82FF0E09F014B
:101BB000220F331FE20FF31FE15AFD4F9D2D9F733C
:101BC0002081207CD22ED92AD08260E272E0AB0143
:101BD0004E195F0957FF02C04D5F5F4F55954795FE
:101BE00055954795498340E659E09A01201B310BF2
:101BF00037FF02C02D5F3F4F3595279535952795C7
:101C00002A836CE00E9479159CE0899FB001112421
:101C100040E050E09A01260F371FF901EE0FFF1F39
:101C20002E0F3F1FF901E15AFD4F908196FD16C01E
:101C30004F5F5F4F4C30510569F781110FC0109213
:101C4000800082E0809381001092850010928400D1
:101C5000B19A80916F00826080936F00E881F0E01C
:101C6000CF01880F991FE80FF91FE15AFD4F8081BE
:101C7000806480838881DF91CF911F910F91FF90C5
:101C8000EF90DF9008951F920F920FB60F921124DC
:101C90002F933F934F935F936F937F938F939F9374
:101CA000AF93BF93EF93FF938091A50287FF05C089
:101CB00010928500109284001BC02091A502022E74
:101CC000000C330B80915E0290E02817390784F4F2
:101CD0008091A502082E000C990BFC01EE0FFF1F4E
:101CE0008E0F9F1FFC01E15AFD4F808186FD15C0BC
:101CF0008091A5028F5F8093A5022091A502022EFC
:101D0000000C330B80915E0290E028173907C4F471
:101D10008091A5028C3064F113C08091A502082E39
:101D2000000C990BFC01EE0FFF1F8E0F9F1FFC0193
:101D3000E15AFD4F808160E08F730E94660BD8CF1F
:101D40008091840090918500049680349C4918F419
:101D500080E49CE905C08091840090918500049600
:101D600090938900809388008FEF8093A5023BC0F9
:101D700020918400309185008091A502082E000CEE
:101D8000990BFC01EE0FFF1F8E0F9F1FFC01E15A04
:101D9000FD4F81819281820F931F909389008093E0
:101DA00088008091A502082E000C990BFC01EE0F13
:101DB000FF1F8E0F9F1FFC01E15AFD4F808186FFA0
:101DC00012C08091A502082E000C990BFC01EE0FA9
:101DD000FF1F8E0F9F1FFC01E15AFD4F808161E0C4
:101DE0008F730E94660BFF91EF91BF91AF919F910E
:101DF0008F917F916F915F914F913F912F910F90B4
:101E00000FBE0F901F901895CF92DF92EF92FF9226
:101E10000F931F93CF93DF936C017A018B01C0E086
:101E2000D0E0CE15DF0589F0D8016D918D01D60186
:101E3000ED91FC910190F081E02DC6010995892B6F
:101E400011F47E0102C02196ECCFC701DF91CF9142
:101E50001F910F91FF90EF90DF90CF9008950E9417
:101E6000B8164F925F926F927F92EF92FF920F930C
:101E70001F93CF93DF93CDB7DEB7A1970FB6F8943A
:101E8000DEBF0FBECDBF7C01FA01CB0119A222300B
:101E900008F42AE08E010F5D1F4F422E512C612C59
:101EA000712CBF01A30192010E94FE16F901CA0123
:101EB000015011096A3014F4605D01C0695CD801F9
:101EC0006C93232B242B252B61F70115110591F021
:101ED000F80101900020E9F73197AF01401B510B49
:101EE000D701ED91FC910280F381E02DB801C7018B
:101EF000099502C080E090E0A1960FB6F894DEBF8D
:101F00000FBECDBFDF91CF911F910F91FF90EF904A
:101F10007F906F905F904F9008958091F203909121
:101F2000F303DC01ED91FC910190F081E02D60EF75
:101F300009940F931F93CF93DF93EC0102EF13E00B
:101F4000D8018D919C91DC01ED91FC916C2F6F7704
:101F50000190F081E02D0995F80180819181DC01EB
:101F6000ED91FC91CC0FCD2FCC1FDD0B6C2F6F773B
:101F70000190F081E02DDF91CF911F910F91099495
:101F80008091F2039091F303DC01ED91FC910190BB
:101F9000F081E02D67EF0994A091F203B091F30373
:101FA000ED91FC9111970190F081E02D682FCD010A
:101FB0000994282F30E0D901A35CBB4F9C919F3737
:101FC00081F0220F331FF901EF5AFB4F118210826B
:101FD0006C93E0918204F0918304309711F070E0EB
:101FE00009940895CF930E948D0F8091F2039091F0
:101FF000F303DC01ED91FC910190F081E02D69E7A4
:1020000009958091F2039091F303DC01ED91FC912D
:10201000A091F503B091F6030190F081E02D6C9151
:1020200009958091F2039091F303DC01ED91FC910D
:10203000A091F503B091F6030190F081E02D119687
:102040006C910995C2E08091F403C81760F4E091A7
:10205000F503F091F603EC0FF11D808190E00E94F2
:10206000990FCF5FF0CFCF910C94C00FCF93DF9338
:10207000C2EFD3E088819981DC01ED91FC91019060
:10208000F081E02D69EF099588819981DC01ED915E
:10209000FC910190F081E02D62E0099588819981A1
:1020A000DC01ED91FC910190F081E02D65E0DF9184
:1020B000CF910994E091BB04EE3058F421E02E0F4B
:1020C0002093BB04F0E0EE0FFF1FE156FB4F91831E
:1020D00080830895EF92FF920F931F93CF93DF9326
:1020E00000D01F92CDB7DEB7162F4A835B8389835A
:1020F0000E948D0FA091F203B091F303ED91FC913A
:1021000011970190F081E02D8981682FCD0109950B
:102110004A81042FE42E5B81F52E8E2D801B8117C2
:1021200038F4F70181917F0190E00E94990FF5CF7B
:102130000F900F900F90DF91CF911F910F91FF9013
:10214000EF900C94C00FFC0101900020E9F731974B
:10215000BF01681B790BAC0181E70C946A10382F22
:102160002091420390914103213208F049C08091AF
:102170001E038111FCCF42E040931E0330931D03E8
:102180003FEF30931C0310921B0320931A03A1E22C
:10219000B3E04AEF52E0FA013E2F341B321718F435
:1021A0003D913193F9CF1092F9022091F902990FE4
:1021B000922B9093F9029091F802913061F4109271
:1021C000F8029091F9029093BB009091BC0093FDAE
:1021D000F8CF95EC01C095EE9093BC0090911E0352
:1021E0009230E1F390911C039F3F79F080911C03A2
:1021F000803241F080911C03803331F084E005C0CF
:1022000081E003C082E001C083E0109220031092BD
:10221000420310921F030895CF93DF93EB01A09127
:10222000F203B091F303ED91FC9111978F70682F39
:10223000606E0190F081E02DCD010995CE01DF9116
:10224000CF910C94990F0F931F93CF93DF93EB01D2
:1022500002EF13E0F801A081B181ED91FC9111979B
:102260008F70682F60690190F081E02DCD01099594
:10227000D8018D919C91DC01ED91FC916C2F6F77D1
:102280000190F081E02D0995F80180819181DC01B8
:10229000ED91FC91BE01660F672F661F770B0190D1
:1022A000F081E02DDF91CF911F910F9109947894E7
:1022B00084B5826084BD84B5816084BD85B582604B
:1022C00085BD85B5816085BD80916E0081608093FC
:1022D0006E00109281008091810082608093810065
:1022E0008091810081608093810080918000816075
:1022F000809380008091B10084608093B1008091D0
:10230000B00081608093B00080917A0084608093F7
:102310007A0080917A00826080937A0080917A00BE
:10232000816080937A0080917A00806880937A003F
:102330001092C10087E18093F4038091F50390919E
:10234000F6030E942016C091F403D0E0CE0101965E
:102350000E948B159093F6038093F503FC01EC0F1C
:10236000FD1F108212E0DC011C9328E011962C93D3
:10237000AE014250510967E472E002960E94BD1618
:102380008EE295E00E945A108CE295E00E945A106D
:1023900088E295E00E945A108EE095E00E945A1063
:1023A0008EEB94E00E945A108CEB94E00E945A103D
:1023B00081E994E00E945A108EEA94E09093870499
:1023C00080938604E0915303F09154031083E091CD
:1023D0005303F09154031082E0914F03F0915003A6
:1023E0001082E0915103F091520380E180831092BA
:1023F0005B03E0915703F091580386E08083E091FE
:102400005503F0915603808180618083E0915503EC
:10241000F0915603808188608083E0915503F091AC
:102420005603808180688083E0915503F0915603C4
:1024300080818F7D808383E493E09093F303809386
:10244000F20380918E04811150C061E08DE00E9402
:10245000B20B62ED70E080E090E00E94050C61E05C
:102460008DE00E94660B68E270E080E090E00E94E0
:10247000050C60E08DE00E94660B62ED70E080E08C
:1024800090E00E94050C61E08DE00E94660B68E21E
:1024900070E080E090E00E94050C60E08DE00E941A
:1024A000660B6AEF70E080E090E00E94050CC0E0EF
:1024B00062ED70E080E090E00E94050C61E08DE04C
:1024C0000E94660B68E270E080E090E00E94050CDC
:1024D00060E08DE00E94660BCF5FC83049F76DE782
:1024E00070E080E090E00E94050C0E943610809120
:1024F000F40381110E94F20F0E94AE04C1E012E0C9
:10250000D5E080913005882381F009B180913605AE
:1025100008230C7F80913305801739F0602F70E01D
:1025200080E00E94231100933305809131058823B8
:10253000B1F08091370503B196B1B0E49B9F900153
:1025400011240F73022B082380913405801739F072
:10255000602F70E081E00E94231100933405809188
:102560003205882311F18091380506B10C73069568
:1025700006950823809135058017B9F0602F70E02B
:1025800082E00E942311009335050FC08091F20371
:102590009091F303DC01ED91FC910680F781E02D31
:1025A00009958F3FBFEF9B0771F48091F2039091E3
:1025B000F303DC01ED91FC910480F581E02D099598
:1025C000892B21F722C1382F20913A04222309F4C4
:1025D00069C0873F09F057C010923A048091FA030E
:1025E000813751F0893709F040C08091F403882386
:1025F000E1F20E94F20FD9CFE0908804F0908904B4
:10260000E114F10491F220913B0430913C04C901A2
:10261000019797FDC90195958795082FAAEFB3E01B
:1026200040E050E030E04E5F5F4F301770F4BA0189
:102630006E507C4FFB0127812C936085F0E86F9FE3
:10264000201911242D933F5FEECF9927DC01AE5066
:10265000BC4F17968C911797882311F018961C92EF
:102660008AEF93E0F7010995A0CFE0918A04F091F9
:102670008B04309709F499CF60913B0461504BEF84
:1026800053E0099592CF20913B0430913C04F9012D
:10269000EE50FC4F80872F5F3F4F30933C042093D8
:1026A0003B0483CF2091F703222309F46BC087FDFD
:1026B00069C09FEF920F9093F703E92FF0E0EE507F
:1026C000FC4F8087911171CF8091F803882309F422
:1026D0006CCF803D09F447C050F4803901F1803C53
:1026E00009F04DC0E0917E04F0917F0440C0843F2A
:1026F00039F1853F61F1803E09F041C0E0917A04F3
:10270000F0917B043097D9F18091FA036091FB033B
:1027100070E020E8829F600D711D11242DC0E091B2
:102720007C04F0917D04309751F18091FA0360911F
:10273000FB0370E040E8849F600D711D11241CC0F4
:102740006091FA038091FB030E94D90F18C0E091B9
:102750008404F0918504309791F06091FA0370E061
:102760008091FB030BC0E0918004F09181043097CD
:1027700031F06091FA0370E08091F90309951092AD
:10278000F80313CF303F38F4282F207F30E08F70CC
:102790008093F90302C09C013327203F310559F192
:1027A0007CF4203C310511F124F420393105D9F0B5
:1027B000FCCE203D3105D1F0203E3105A1F0F5CE13
:1027C000293F3105F9F034F4C901845F910902977A
:1027D00050F0EBCE2F3F310509F0E7CE82EF93E0CA
:1027E0000E94B305E2CE1093F70302C0C093F70333
:1027F0002093F803DACEC0933A0410923C0410926E
:102800003B04D3CE0E943610D0CE2FB7F8948091DF
:10281000F4029091F502A091F602B091F7022FBF59
:102820008093930490939404A0939504B09396049A
:10283000C0909704D0909804E0909904F0909A0486
:1028400040919B0450919C0460E070E04C015D015C
:102850008C189D08AE08BF08481559056A057B0508
:10286000E0F4C40ED51EE61EF71E4C015D018C1867
:102870009D08AE08BF08481559056A057B0580F418
:10288000841B950BA60BB70B809397049093980429
:10289000A0939904B0939A040BC00E94E70831CE2C
:1028A000C0929704D0929804E0929904F0929A040E
:1028B0008DE3E82E84E0F82E02EF0630B8F4F7013D
:1028C0008081823099F480912A0590912B05002E09
:1028D00002C0959587950A94E2F780FF07C0802F84
:1028E0000E94EE0BBC01802F0E940C110F5FFFEFC6
:1028F000EF1AFF0A063009F78091090587FDCDCF51
:10290000F12C8F2D90E020910905022E000C330B45
:102910002817390714F2D89FF001D99FF00D112420
:10292000E254FB4F0196D89FD001D99FB00D1124DE
:10293000A254BB4F4381548106812C9162818EEB5E
:1029400094E00E94D905F394DCCFE9E3F5E08EE250
:1029500091E0918380831282138214821582E3E4D2
:10296000F3E01382128248EE53E060E070E04483AB
:102970005583668377832EE031E03183208325EC15
:1029800030E03587248724EC30E03787268720EC39
:1029900030E0318B208B21EC30E0338B228B22EC2A
:1029A00030E0358B248B26EC30E0378B268B118E74
:1029B000128E138E148EE0EEF3E0138212824483A3
:1029C0005583668377832EE131E031832083EFE303
:1029D000F5E0918380831282138214821582E5E4EC
:1029E000F5E0108212821182E2EFF3E010928E0481
:1029F000128214821382CF010E94B305EEE2F5E049
:102A000080E791E091838083F0939004E0938F04BA
:102A10008CEF93E09093810480938004ECE2F5E0E6
:102A200084E691E091838083F093F103E093F003D7
:102A30008BEC91E090937D0480937C048FE891E08F
:102A40009093850480938404E8E2F5E088E591E0C2
:102A500091838083F093EF03E093EE03138212825D
:102A600086EA94E090937F0480937E04EEE0F5E0A4
:102A700088E891E091838083F0930D05E0930C0545
:102A80008CE491E09093BF048093BE0410920805FB
:102A90008FEF8093090510920B0510920A0580E4D0
:102AA00091E09093BD048093BC048FEA92E09093F0
:102AB0007B0480937A04EDE9F4E084E391E0918370
:102AC0008083F093ED03E093EC038AE091E0909330
:102AD00083048093820484EF90E090938B0480932E
:102AE0008A04168E8CE791E090939204809391046F
:102AF0000895991B79E004C0991F961708F0961B5A
:102B0000881F7A95C9F780950895EE0FFF1F0590ED
:102B1000F491E02D0994CF93DF938230910510F466
:102B200082E090E0E0914A05F0914B0520E030E032
:102B3000C0E0D0E0309711F140815181481759072A
:102B4000C0F04817590761F482819381209719F0EA
:102B50009B838A832BC090934B0580934A0526C0A4
:102B60002115310519F04217530718F49A01BE01D7
:102B7000DF01EF010280F381E02DDCCF211531056B
:102B800009F1281B390B2430310590F412968D91F0
:102B90009C9113976115710521F0FB01938382834A
:102BA00004C090934B0580934A05FD01329644C0C2
:102BB000FD01E20FF31F81939193225031092D9370
:102BC0003C933AC02091480530914905232B41F4AC
:102BD000209102013091030130934905209348056B
:102BE00020910001309101012115310541F42DB7EB
:102BF0003EB74091040150910501241B350BE09133
:102C00004805F0914905E217F307A0F42E1B3F0B8E
:102C10002817390778F0AC014E5F5F4F241735074E
:102C200048F04E0F5F1F509349054093480581932C
:102C3000919302C0E0E0F0E0CF01DF91CF910895E1
:102C40000F931F93CF93DF93009709F48CC0FC017F
:102C500032971382128200914A0510914B0501159B
:102C6000110581F420813181820F931F2091480545
:102C7000309149052817390779F5F0934905E09314
:102C8000480571C0D80140E050E0AE17BF0750F4CE
:102C900012962D913C911397AD012115310509F143
:102CA000D901F3CF9D01DA013383228360817181E1
:102CB000860F971F8217930769F4EC0128813981E9
:102CC000260F371F2E5F3F4F318320838A819B81E0
:102CD00093838283452B29F4F0934B05E0934A05B7
:102CE00042C01396FC93EE931297ED0149915991CE
:102CF0009E01240F351FE217F30771F48081918143
:102D0000840F951F029611969C938E9382819381D6
:102D100013969C938E931297E0E0F0E0D801129600
:102D20008D919C911397009719F0F8018C01F6CFC3
:102D30008D919C9198012E5F3F4F820F931F2091A0
:102D40004805309149052817390769F4309729F467
:102D500010924B0510924A0502C013821282109302
:102D6000490500934805DF91CF911F910F91089578
:102D700081E090E0F8940C942F17FB01DC014150A6
:102D8000504048F001900D920020C9F701C01D92FB
:102D900041505040E0F70895052E97FB1EF4009433
:102DA0000E94E31657FD07D00E94FE1607FC03D0D1
:102DB0004EF40C94E31650954095309521953F4F75
:102DC0004F4F5F4F089590958095709561957F4F17
:102DD0008F4F9F4F08950E942017A59F900DB49F7D
:102DE000900DA49F800D911D11240895B7FF0C94A0
:102DF000EB160E94EB16821B930B0895A1E21A2E8C
:102E0000AA1BBB1BFD010DC0AA1FBB1FEE1FFF1F8E
:102E1000A217B307E407F50720F0A21BB30BE40BDE
:102E2000F50B661F771F881F991F1A9469F7609525
:102E30007095809590959B01AC01BD01CF010895DF
:102E4000A29FB001B39FC001A39F700D811D1124EB
:102E5000911DB29F700D811D1124911D0895F8944C
:022E6000FFCFA2
:102E620000004C05800001000000000000007E0808
:102E7200040F470825083908C50800000000A40906
:102E820074096C0958094909480900000000210A1F
:102E920000000000B30087006B0A040A0000000073
:102EA20043012C04D603C400000000007B01D400BF
:102EB2009C06C9000000000053017E047501C50094
:102EC200000000002901AE01B500B40000000000BE
:102ED20033016702C200B70000000000030A010AC2
:102EE200E809D309000000008501A0056105E70497
:102EF200556E68616E646C656420737973657820C1
:102F0200636F6D6D616E6400556E6B6E6F776E20D0
:102F120070696E206D6F6465004932433A20546FC8
:102F22006F206D616E7920627974657320726563BA
:102F32006569766564004932433A20546F6F2066B2
:102F42006577206279746573207265636569766559
:102F5200640031302D626974206164647265737338
:102F6200696E67206E6F7420737570706F7274650E
:102F72006400746F6F206D616E792071756572697E
:102F82006573002F686F6D652F726F6E2F446573C6
:102F92006B746F702F436F6E6669677572656446F6
:102FA20069726D6174612F436F6E666967757265D0
:0E2FB200644669726D6174612E696E6F000075
:00000001FF
