:100000000C945E000C9486000C9486000C94860080
:100010000C9486000C9486000C9486000C94860048
:100020000C9486000C9486000C9486000C94B40505
:100030000C9486000C9486000C9486000C94860028
:100040000C94A0080C9486000C94260C0C94690C5B
:100050000C9486000C9486000C9486000C94860008
:100060000C9486000C94860000000007000201003A
:100070000003040600000000000000000102040864
:100080001020408001020408102001020408102002
:10009000040404040404040402020202020203032E
:1000A0000303030300000000250028002B000000CC
:1000B0000000240027002A00A505250D11241FBEDD
:1000C000CFEFD8E0DEBFCDBF16E0A0E0B1E0EEE5B7
:1000D000F4E202C005900D92A433B107D9F717E0FE
:1000E000A4E3B6E001C01D92A93DB107E1F710E01D
:1000F000CCEBD0E004C02297FE010E94DC11C83B8B
:10010000D107C9F70E94CE090C942D120C9400005F
:100110006AE070E086ED96E00E940F076BE070E009
:1001200089ED96E00E940F0769E070E08CED96E0A3
:100130000E940F0768E070E08FED96E00E940F07C5
:1001400067E070E082EE96E00E940F076CE070E0DE
:1001500085EE96E00E940F076DE070E088EE96E075
:100160000E940F076EE070E08BEE96E00E940F0792
:1001700064E070E08EEE96E00E940F0762E070E0AF
:1001800081EF96E00E940F076FE070E084EF96E049
:100190000E940F0760E170E087EF96E00E940F0772
:1001A00086E08093D30685E08093D40683E0809335
:1001B000D5061092FB061092FA062FC0FC01E05003
:1001C000FF4F608120E8629FB00111249C01220F43
:1001D000331FF901E557F94F71836083F901ED553C
:1001E000F94F71836083660F672F661F770BF901E4
:1001F000E554F94F40815181640F751F820F931FA1
:100200008A52994F0E9448078091FA069091FB0606
:1002100001969093FB068093FA068091FA069091DE
:10022000FB068C30910554F21092FB061092FA06F0
:100230001EC09C01220F331FF901E15BF94F1182AF
:100240001082F901EB5AF94F11821082FC01ED5234
:10025000F94F60E070E080810E94A6078091FA0665
:100260009091FB0601969093FB068093FA0680918D
:10027000FA069091FB0683309105DCF240E051EEE6
:1002800060E070E08BE297E00E94A40C64EF71E004
:1002900080E090E00E94260961E081E10E9431083F
:1002A00061E081E10C946908CF92DF92EF92FF92B6
:1002B000CF93DF93E0903806EE2009F455C04AE072
:1002C000E49E7001112420E030E0E0E0F0E0DF0186
:1002D000A959B94F8C9140E8849FC0011124D901DC
:1002E000A557B94F8D939C93E901CD58D94FD901AA
:1002F000AD55B94F4D915C91841B950BB7010E9490
:1003000069117983688331962E5F3F4FEC30F10598
:10031000F4F220E030E0E0E0F0E0D901AA5BB94F70
:100320008C9140E8849FC0011124DF01A15BB94F8B
:100330008D939C93EF01C75BD94FDF01AB5AB94F47
:100340004D915C91841B950BB7010E9469117983D3
:1003500068832F5F3F4F329623303105F4F230939C
:10036000FB062093FA0622C020E030E080E090E017
:10037000F901ED58F94F1182108201962E5F3F4F1F
:100380008C309105ACF320E030E080E090E0F901A2
:10039000E75BF94F1182108201962E5F3F4F833049
:1003A0009105ACF39093FB068093FA060E94EA084D
:1003B0000E9497106B017C0160933F06709340068A
:1003C00080934106909342066091380684E6689FC8
:1003D000B0011124882777FD8095982F0E949910ED
:1003E0009B01AC01C701B6010E949A0F60933B06C6
:1003F00070933C0680933D0690933E06109238061B
:1004000080E090E0DF91CF91FF90EF90DF90CF9070
:100410000895809136068F5F883018F480933606F1
:1004200002C010923606209137068091360690E081
:1004300038E0239F800D911D112424E0880F991F1F
:100440002A95E1F780509F4F20E030E0F901E9590B
:10045000F94FDC01A20FB31F4C9140832F5F3F4F38
:100460002C3031059CF3209137068091360690E0C0
:1004700038E0239F800D911D1124B4E0880F991F4F
:10048000BA95E1F780509F4F20E030E0F901EA5B38
:10049000F94FDC01A20FB31F1C964C9140832F5FD4
:1004A0003F4F2330310594F33093FB062093FA0637
:1004B00080913606E091370698E0E99FF00111241B
:1004C000E80FF11DA4E0EE0FFF1FAA95E1F7E05041
:1004D000FF4F8785809338060C945401CF93DF93A8
:1004E000CDB7DEB727970FB6F894DEBF0FBECDBFEE
:1004F0004AE0BC01CE0101960E944C0B8D819E8189
:100500008230910519F468E076E004C0019731F477
:1005100067E076E08BE297E00E944F0ABE016F5FD2
:100520007F4F8BE297E00E94190ACE0101960E944C
:10053000C10A27960FB6F894DEBF0FBECDBFDF917C
:10054000CF9108958BE297E00E948A0B892BD1F31B
:100550008BE297E00E94B90B9C01205331092A30AD
:10056000310510F02FEF3FEFC9010895CF93DF93CE
:10057000EC010E94A2028F3F2FEF920709F433C0D3
:1005800044E6489F9001499F300D11243093350671
:10059000209334060E94A2028F3F2FEF920719F199
:1005A0002AE0289FA001299F500D11242091340694
:1005B00030913506240F351F3093350620933406CD
:1005C0000E94A2028F3F2FEF920769F0209134061C
:1005D00030913506280F391F3093350620933406A5
:1005E000C217D30714F42FEF3FEFC901DF91CF916A
:1005F0000895EF92FF920F931F93CF93DF93809113
:100600003806882321F0F12CCFEFDFEFCCC080E05B
:1006100090E0FC01E55AF94FDC01A959B94F2C9142
:10062000208301968C309105A4F380E090E0FC01DA
:10063000ED5BF94FDC01AA5BB94F2C912083019649
:1006400083309105A4F39093FB068093FA06FF2470
:10065000F394C0E0D0E0A7C08BE297E00E948A0B41
:10066000892BD1F38BE297E00E94B90B823591057B
:1006700009F445C04CF48234910509F45AC087341A
:10068000910509F095C048C08335910529F084355E
:10069000910509F08DC059C00E94A202EC018F3F64
:1006A0002FEF920709F481C00E94A2028C010F3F34
:1006B0008FEF180709F474C08BE297E00E948A0B51
:1006C000892BD1F38BE297E00E94B90B813491051D
:1006D00009F06EC084EB90E00E94B6028F3F2FEFCE
:1006E000920709F465C0EC9EF001ED9EF00D112417
:1006F000E55AF94FE00FF11F8083EC0156C08FEFF0
:1007000090E00E94B602EC01CF3F8FEFD80709F4CA
:100710004FC0C093430649C08FEF90E00E94B602DD
:10072000EC01CF3F8FEFD80709F442C0C0934406D5
:100730003CC08FEF90E00E94B602EC01CF3F8FEFFC
:10074000D807B1F1C093450630C08FEF90E00E940A
:10075000B602EC01181619066CF58093380680E095
:1007600090E0FC01E959F94FDC01A55AB94F2C91F1
:10077000208301968C309105A4F380E090E0FC0189
:10078000EA5BF94FDC01AD5BB94F2C9120830196F8
:1007900083309105A4F39093FB068093FA060AC078
:1007A000CFEFDFEF02C03AE0E32EF11055CF02C0E9
:1007B000CFEFDFEFCE01DF91CF911F910F91FF902F
:1007C000EF900895CF92DF92EF92FF928BE297E045
:1007D0000E948A0B892B09F4DDC08BE297E00E940E
:1007E000B90B839709F0D6C08BE297E00E948A0B81
:1007F000892BD1F38BE297E00E94B90B8D349105E0
:1008000071F02CF48334910509F0BEC0ADC0803581
:10081000910531F18135910509F0B6C03AC00E94C9
:10082000A2028F3F2FEF9207C1F0809337068DE42D
:100830008093000661E081E10E9469086AE076E049
:100840008BE297E00E944F0A4AE050E06091370641
:100850008BE297E00E94BA0A9DC06DE076E096C0F8
:100860000E94F9027C018FEFE816F80679F080E526
:100870008093000661E081E10E94690861E176E011
:100880008BE297E00E944F0AC7016BC065E176E0FA
:100890007DC069E176E08BE297E00E944F0A80918B
:1008A00000068D34A9F56BE076E08BE297E00E94BC
:1008B0004F0A4AE050E0609137068BE297E00E94D1
:1008C000BA0A63E176E08BE297E00E944F0AC0909B
:1008D0003B06D0903C06E0903D06F0903E060E941C
:1008E000EA080E9497109B01AC01C701B6010E9463
:1008F000990F20E030E048EC52E40E94FE0F0E9485
:100900006610CB0177FF02C080E090E00E946E028B
:10091000809100068035F1F562E176E08BE297E0A8
:100920000E944F0AC0903B06D0903C06E0903D06E6
:10093000F0903E060E94EA080E9497109B01AC01CD
:10094000C701B6010E94990F20E030E048EC52E464
:100950000E94FE0F0E946610CB0177FF02C080E06C
:1009600090E00E946E0216C06CE176E08BE297E0A8
:100970000E944F0A80913806882319F06FE176E0D3
:1009800005C068E076E002C061E276E08BE297E0C5
:100990000E944F0AC0903B06D0903C06E0903D0676
:1009A000F0903E060E94EA080E9497109B01AC015D
:1009B000C701B6010E94491118160CF0A5C0C090DD
:1009C0003B06D0903C06E0903D06F0903E060E942B
:1009D000EA080E9497109B01AC01C701B6010E9472
:1009E000990F20E030E040E251E40E94FE0F0E94A7
:1009F000661070933A06609339061092FB061092C7
:100A0000FA063AC0C901880F991FFC01E557F94F52
:100A1000DC01AD58B94F0D90BC91A02D6091390605
:100A200070913A06A69FA001A79F500DB69F500D4A
:100A3000112460817181641B750BFC01ED55F94F28
:100A400071836083660F672F661F770BFC01E55487
:100A5000F94F40815181640F751F820F931F8A5295
:100A6000994F0E9448078091FA069091FB060196E3
:100A70009093FB068093FA062091FA063091FB06CC
:100A80002C3031050CF4BECF1092FB061092FA0602
:100A900033C09C01220F331FF901E15BF94FD901EB
:100AA000A75BB94F0D90BC91A02D60913906709154
:100AB0003A06A69FA001A79F500DB69F500D112486
:100AC00060817181641B750BF901EB5AF94F7183D9
:100AD0006083660F672F661F770BFC01ED52F94F9D
:100AE00080810E94A6078091FA069091FB060196EC
:100AF0009093FB068093FA068091FA069091FB068C
:100B00008330910534F21CC0809100068D3431F49D
:100B1000FF90EF90DF90CF900C940902803581F424
:100B200080913806882331F0FF90EF90DF90CF90CE
:100B30000C945401FF90EF90DF90CF900C94EA0852
:100B4000FF90EF90DF90CF900895CF93DF93C6EDA5
:100B5000D6E0CE010E947206239686E0CA3FD807EF
:100B6000C1F7DF91CF9108951F920F920FB60F92A8
:100B700011242F933F934F935F936F937F938F93A2
:100B80009F93AF93BF93EF93FF938091FD0687FFF1
:100B900005C010928500109284001AC02091FD06B5
:100BA000332727FD30958091FC0690E02817390700
:100BB0007CF48091FD06992787FD9095FC01EE0F4E
:100BC000FF1FE80FF91FE250F94F808186FD37C003
:100BD0008091FD068F5F8093FD062091FD063327EF
:100BE00027FD30958091FC0690E028173907CCF559
:100BF0008091FD068C30F4F134C08091FD06992778
:100C000087FD9095FC01EE0FFF1FE80FF91FE250E2
:100C1000F94F808161E08F730E94690852C080E4BF
:100C20009CE905C080918400909185000496909382
:100C30008900809388008FEF8093FD0642C08091E9
:100C4000FD06992787FD9095FC01EE0FFF1FE80F29
:100C5000F91FE250F94F808160E08F730E946908AC
:100C6000B7CF8091840090918500049680349C4990
:100C7000B0F2D8CF80918400909185002091FD063C
:100C8000332727FD3095F901EE0FFF1FE20FF31F09
:100C9000E250F94F21813281820F931F9093890096
:100CA000809388008091FD06992787FD9095FC012F
:100CB000EE0FFF1FE80FF91FE250F94F808186FD0C
:100CC0009CCFFF91EF91BF91AF919F918F917F91B9
:100CD0006F915F914F913F912F910F900FBE0F90A9
:100CE0001F9018952091FC062C30A0F4FC01208365
:100CF000822F8F5F8093FC06822F90E0FC01EE0F25
:100D0000FF1FE80FF91FE250F94F88EB9BE0928339
:100D1000818308952FEFFC0120830895DF92EF92E5
:100D2000FF920F931F93CF93DF93EC01D62E7A019E
:100D3000890188818C3008F065C061E08D2D0E94AA
:100D400031088881A82FB0E0FD01EE0FFF1FEA0FE8
:100D5000FB1FE250F94F2D2D2F739081907C922B29
:100D6000908360E272E06E197F0977FF02C06D5FC9
:100D70007F4F7595679575956795698340E659E04E
:100D8000401B510B57FF02C04D5F5F4F5595479574
:100D9000559547954A836CE00E945D119CE0899FC0
:100DA000B001112420E030E0A901460F571FFA01DD
:100DB000EE0FFF1FE40FF51FE250F94F908196FDF3
:100DC00015C02F5F3F4F2C30310571F71DC01092B9
:100DD000800082E080938100109285001092840050
:100DE000B19A80916F00826080936F00888190E05B
:100DF000FC01EE0FFF1FE80FF91FE250F94F808151
:100E000080648083888103C0882309F3EFCFDF915A
:100E1000CF911F910F91FF90EF90DF90089520E602
:100E200039E040E252E00C948E06FC0180818C3067
:100E300070F5918128E830E0291B310997FD339541
:100E4000220F331F220F331F621773077CF092812A
:100E500028E532E0291B310997FD3395220F331F16
:100E6000220F331F621773070CF49B014FB7F894DE
:100E700090E0FC01EE0FFF1FE80FF91FE250F94F61
:100E800022503109220F331F328321834FBF08952F
:100E9000AF92BF92CF92DF92EF92FF920F931F9388
:100EA000CF93DF93EC01603282E078070CF041C011
:100EB00077FD04C0653B710524F405C060E070E077
:100EC00002C064EB70E0298188E890E0821B910900
:100ED00027FD9395880F991F880F991F5C01CC24DB
:100EE000B7FCC094DC2C882777FD8095982F2A8149
:100EF00048E552E0421B510927FD5395440F551F09
:100F0000440F551F8A01222717FD2095322F3F934A
:100F10002F931F930F9314EBE12EF12C00E010E0C0
:100F200020E030E0A9010E9487090F900F900F90F8
:100F30000F90CE01DF91CF911F910F91FF90EF9015
:100F4000DF90CF90BF90AF900C9415071F93CF9375
:100F5000DF93182FEB0161E00E943108209711F414
:100F600060E004C0CF3FD10539F461E0812FDF910B
:100F7000CF911F910C946908E12FF0E0E859FF4FE1
:100F8000E491E330B9F028F4E13051F0E230B1F50A
:100F90000CC0E63019F1E73049F1E43079F514C0BE
:100FA00084B5806884BDC7BD2EC084B5806284BD11
:100FB000C8BD29C080918000806880938000D09354
:100FC0008900C09388001FC0809180008062809358
:100FD0008000D0938B00C0938A0015C08091B00030
:100FE00080688093B000C093B3000DC08091B000C2
:100FF00080628093B000C093B40005C0C038D105B2
:101000000CF0B3CFADCFDF91CF911F910895833016
:1010100069F028F48130A1F0823011F514C08630D7
:10102000B1F08730C1F08430D9F404C080918000E1
:101030008F7703C0809180008F7D8093800008951A
:1010400084B58F7702C084B58F7D84BD089580916B
:10105000B0008F7703C08091B0008F7D8093B00087
:101060000895CF93DF9390E0FC01E458FF4F449143
:10107000FC01E057FF4F8491882341F190E0880FF5
:10108000991FFC01E255FF4F25913491D9018C55F0
:101090009F4FFC0185919491C82FD92F9FB7F89449
:1010A0008C91611106C0409584238C9388818423A0
:1010B00008C0623041F4242F209582238C938881CC
:1010C000842B888302C0842B8C939FBFDF91CF91A8
:1010D00008950F931F93CF93DF931F92CDB7DEB781
:1010E000282F30E0F901E859FF4F8491F901E458C5
:1010F000FF4F1491F901E057FF4F04910023D1F005
:10110000882321F069830E9407086981E02FF0E0BD
:10111000EE0FFF1FEC55FF4F85919491DC019FB7B7
:10112000F8948C91611103C01095812301C0812B2B
:101130008C939FBF0F90DF91CF911F910F910895D6
:101140001F920F920FB60F9211242F933F938F93FC
:101150009F93AF93BF938091220790912307A09113
:101160002407B091250730912A07232F2D5F2D37B3
:1011700020F40196A11DB11D05C0232F2A57029608
:10118000A11DB11D20932A07809322079093230766
:10119000A0932407B09325078091260790912707F5
:1011A000A0912807B09129070196A11DB11D809338
:1011B000260790932707A0932807B0932907BF918C
:1011C000AF919F918F913F912F910F900FBE0F90F4
:1011D0001F9018950F931F938FB7F89400912207D3
:1011E0001091230720912407309125078FBFB80164
:1011F000C9011F910F9108950F931F939FB7F89402
:101200000091260710912707209128073091290780
:1012100086B5A89B06C08F3F21F00F5F1F4F2F4F51
:101220003F4F9FBF322F212F102F0027080F111D76
:10123000211D311D42E0000F111F221F331F4A954F
:10124000D1F7B801C9011F910F910895CF92DF9294
:10125000EF92FF92CF93DF936B017C010E94FC0819
:10126000EB010EC00E94FC086C1B7D0B683E7340B6
:1012700038F081E0C81AD108E108F108C851DC4F04
:10128000C114D104E104F10469F7DF91CF91FF901B
:10129000EF90DF90CF900895789484B5826084BDFC
:1012A00084B5816084BD85B5826085BD85B581606A
:1012B00085BDEEE6F0E0808181608083E1E8F0E0CA
:1012C0001082808182608083808181608083E0E8F9
:1012D000F0E0808181608083E1EBF0E080818460D8
:1012E0008083E0EBF0E0808181608083EAE7F0E0DA
:1012F000808184608083808182608083808181603E
:1013000080838081806880831092C10008954F920D
:101310005F926F927F92AF92BF92CF92DF92EF92E5
:10132000FF920F931F93CF93DF93CDB7DEB72901C1
:101330003A01621B730B840B950B29893A894B89FF
:101340005C892A193B094C095D09298B3A8B4B8B27
:101350005C8B9B01AC0169897A898B899C890E948D
:101360004D11E418F50806091709A80197010E9414
:101370009F112A0D3B1D4C1D5D1DB901CA01DF9156
:10138000CF911F910F91FF90EF90DF90CF90BF9082
:10139000AF907F906F905F904F9008950E944C099E
:1013A0000E948800C0E6DCE00E94E2032097E1F39F
:1013B0000E94600CF9CFCF92DF92EF92FF920F93D1
:1013C0001F93CF93DF936C01EB017A01E60EF71EBA
:1013D00000E010E00BC06991D601ED91FC91019005
:1013E000F081E02DC6010995080F191FCE15DF0504
:1013F00091F7C801DF91CF911F910F91FF90EF906E
:10140000DF90CF9008956115710581F0DB010D909B
:101410000020E9F7AD0141505109461B570BDC0193
:10142000ED91FC910280F381E02D099480E090E041
:101430000895AF92BF92CF92DF92EF92FF920F93F7
:101440001F93CF93DF937C016B0100E010E0C0E0BD
:10145000D0E011C0D701ED91FC91A080B180B8011E
:10146000C6010E94790B682FC701F5010995C80FC5
:10147000D91F0F5F1F4FD60114968D919C91159720
:101480000817190738F3CE01DF91CF911F910F9103
:10149000FF90EF90DF90CF90BF90AF9008950C94A5
:1014A000030A4F925F926F927F929F92AF92BF9288
:1014B000CF92DF92EF92FF920F931F93CF93DF9320
:1014C000CDB7DEB7A1970FB6F894DEBF0FBECDBF84
:1014D0005C016A017B01922E19A281E0821710F053
:1014E0008AE0982E8E010F5D1F4F492C512C612CE4
:1014F000712CC701B601A30192010E947D118C2DB0
:10150000929E80191124015011098A3014F4805DD3
:1015100001C0895CF801808369017A01C114D1049A
:10152000E104F10431F7B801C5010E94030AA19654
:101530000FB6F894DEBF0FBECDBFDF91CF911F91E4
:101540000F91FF90EF90DF90CF90BF90AF909F9062
:101550007F906F905F904F9008952115310541F471
:10156000DC01ED91FC910190F081E02D642F099454
:101570000C94510A9A01462F50E060E070E00C9400
:10158000AD0AFC01808191810C94160ECF93DF93FC
:10159000EC0188819981009711F00E94160E198242
:1015A00018821D821C821B821A82DF91CF910895BE
:1015B0000F931F93CF93DF93EC018B016F5F7F4FEE
:1015C000888199810E94B50E009731F099838883B4
:1015D0001B830A8381E001C080E0DF91CF911F91DE
:1015E0000F910895CF93DF93EC0188819981892B26
:1015F00031F08A819B818617970708F00CC0CE01D5
:101600000E94D80A882349F08C819D81892B19F486
:10161000E881F981108281E001C080E0DF91CF9103
:101620000895EF92FF920F931F93CF93DF93EC01F6
:101630007B018A01BA010E94F20A811104C0CE0125
:101640000E94C60A07C01D830C83B7018881998157
:101650000E94F511CE01DF91CF911F910F91FF9064
:10166000EF900895CF93DF93D82FC92F611571059F
:1016700061F0DB010D900020E9F7AD014150510907
:10168000461B570B0E94110B02C00E94C60A8D2FE9
:101690009C2FDF91CF9108950F931F93CF93DF93EA
:1016A000CDB7DEB762970FB6F894DEBF0FBECDBFE1
:1016B0008C01CB01F80111821082138212821582F3
:1016C0001482168250E0BE016F5F7F4F0E94FC11B2
:1016D000BE016F5F7F4FC8010E94320B62960FB64A
:1016E000F894DEBF0FBECDBFDF91CF911F910F9158
:1016F0000895FC01248135816217730748F48081C5
:101700009181009729F0FC01E60FF71F8081089571
:1017100080E00895FC0184859585FC01E05CFF4F25
:1017200020813181FC01EE5BFF4F80819181281B7C
:10173000390B2F733327C9010895FC0184859585E2
:10174000FC01E05CFF4F40815181FC01EE5BFF4FEB
:10175000208131814217530741F00190F081E02D43
:10176000E80FF91F208130E002C02FEF3FEFC901E1
:101770000895FC0184859585FC01E05CFF4F408164
:101780005181FC01EE5BFF4F2081318142175307ED
:1017900081F0A081B181A80FB91F8C912081318186
:1017A0002F5F3F4F2F73332731832083282F30E063
:1017B00002C02FEF3FEFC9010895FC0181A18823EA
:1017C00029F0A489B5898C9186FFFBCF11A20895D9
:1017D000CF93DF93FC0126853785D901A05CBF4FED
:1017E0008D919C91119701968F739927E901CE5B9A
:1017F000DF4F4881598184179507D9F30D90BC912B
:10180000A02DA20FB31F6C93A685B785A05CBF4F18
:1018100011969C938E93A689B7892C9181E090E0D4
:10182000078C02C0880F991F0A94E2F7282B2C938B
:1018300081E081A30488F589E02D80818064808324
:1018400081E090E0DF91CF91089508951F920F926B
:101850000FB60F9211242F933F934F938F939F9323
:10186000EF93FF938091C00082FD1CC04091C600A1
:101870008091D1079091D20701968F73992720917B
:10188000D3073091D4078217930771F0E091D10705
:10189000F091D207EF56F84F40839093D207809390
:1018A000D10702C08091C600FF91EF919F918F9167
:1018B0004F913F912F910F900FBE0F901F90189551
:1018C0008BE297E00E948A0B892B11F00C94250C77
:1018D00008951F920F920FB60F9211242F933F93EA
:1018E0008F939F93EF93FF9320918D0730918E07F5
:1018F00080918F07909190072817390731F48091D4
:10190000C1008F7D8093C10014C0E0918F07F091DA
:101910009007E35BF84F208180918F0790919007AB
:1019200001968F7399279093900780938F07209348
:10193000C600FF91EF919F918F913F912F910F9052
:101940000FBE0F901F901895CF92DF92EF92FF92EB
:10195000CF93DF93EC016A017B01411581EE5807BB
:1019600061057105F9F0EC89FD8981E090E008A03E
:1019700002C0880F991F0A94E2F7808360E079E043
:101980008DE390E0A70196010E947D11215031095D
:10199000410951095695479537952795211580E1BD
:1019A000380798F0EC89FD89108260E874E88EE1D0
:1019B00090E0A70196010E947D1121503109410953
:1019C00051095695479537952795E889F9893083C8
:1019D000EA89FB89208319A2EE89FF89408181E091
:1019E00090E09C010C8C02C0220F331F0A94E2F796
:1019F000422B4083EE89FF8940819C010D8C02C0FF
:101A0000220F331F0A94E2F7422B4083EE89FF89AD
:101A100040819C010E8C02C0220F331F0A94E2F712
:101A2000422B4083EE89FF8920810F8C02C0880FF2
:101A3000991F0A94E2F7809582238083DF91CF91EA
:101A4000FF90EF90DF90CF90089510922E071092A4
:101A50002D0788EE93E0A0E0B0E080932F079093ED
:101A60003007A0933107B093320788E296E0909355
:101A70002C0780932B0781E997E090933807809398
:101A800037078DE497E090933A078093390785EC08
:101A900090E090933C0780933B0784EC90E0909318
:101AA0003E0780933D0780EC90E090934007809341
:101AB0003F0781EC90E0909342078093410782ECCE
:101AC00090E0909344078093430786EC90E09093D6
:101AD00046078093450784E08093470783E080931F
:101AE000480787E08093490785E080934A0781E0B3
:101AF00080934B0708950F931F93CF93DF9382300A
:101B0000910510F482E090E0E091D707F091D807BA
:101B100020E030E0C0E0D0E023C040815181481790
:101B20005907A8F04817590761F4828193812097DB
:101B300019F09B838A832EC09093D8078093D70790
:101B400029C02115310529F04217530710F0A901CA
:101B500002C0BE01DF0102811381EF019A01F80189
:101B60003097D9F62115310509F1281B390B24309E
:101B7000310590F412968D919C9113976115710522
:101B800021F0FB019383828304C09093D807809354
:101B9000D707FD01329644C0FD01E20FF31F819388
:101BA0009193225031092D933C933AC02091D5074F
:101BB0003091D607232B41F420910306309104067F
:101BC0003093D6072093D507209101063091020665
:101BD0002115310541F42DB73EB7409105065091CE
:101BE0000606241B350BE091D507F091D607E217C6
:101BF000F307A0F42E1B3F0B2817390778F0AC0130
:101C00004E5F5F4F2417350748F04E0F5F1F50930C
:101C1000D6074093D5078193919302C0E0E0F0E0AE
:101C2000CF01DF91CF911F910F910895EF92FF9215
:101C30000F931F93CF93DF93009709F48FC0DC01BC
:101C4000129713961C921E921297E090D707F0906D
:101C5000D807E114F10489F42D913C911197280FD4
:101C6000391F8091D5079091D6078217930789F580
:101C7000B093D607A093D50771C0E70120E030E00C
:101C800001C0EA01CA17DB0738F44A815B819E0173
:101C900041155105B1F722C0BC0162507109FB0129
:101CA000D383C28300811181AC01400F511F4C17B7
:101CB0005D0761F448815981400F511F4E5F5F4FAE
:101CC000518340834A815B815383428321153105CF
:101CD00029F4B093D807A093D70740C0F901B38384
:101CE000A283E90169917991C60FD71FAC17BD078F
:101CF00079F4DC015E914E91460F571F4E5F5F4FA6
:101D00005183408312968D919C9113979383828384
:101D1000A0E0B0E002C0D7017C01F701828193818D
:101D20000097C9F7C701029620813181820F931F66
:101D30002091D5073091D6072817390779F41097E5
:101D400029F41092D8071092D70704C013961C925A
:101D50001E921297F092D607E092D507DF91CF91AD
:101D60001F910F91FF90EF9008958F929F92AF92E5
:101D7000BF92CF92DF92EF92FF920F931F93CF9378
:101D8000DF93EC01009779F4CB01DF91CF911F91A4
:101D90000F91FF90EF90DF90CF90BF90AF909F900A
:101DA0008F900C947B0DDC01A60FB71FFC013297BE
:101DB000AE17BF0718F4C0E0D0E0ADC000811181BC
:101DC00006171707B0F00530110508F4A4C0C801C4
:101DD00004978617970708F49EC002501109061B46
:101DE000170B0D931D9371836083CD010E94160E16
:101DF00092C07B01E01AF10A5C01A00EB11EE091D5
:101E0000D707F091D807812C912C80E090E04CC04E
:101E1000EA15FB05F1F5408151816A0122E0C20E0D
:101E2000D11CCE14DF04A8F19A012E193F097901C3
:101E3000690132E0C30ED11C2EEFA22EBB24BA944E
:101E4000AC0EBD1E25E0C216D10478F0428153814C
:101E500013965C934E9312971196FC92EE92F501B5
:101E6000718360833A2F2B2F09C00E5F1F4F040F21
:101E7000151FD5010D931C9332812381009721F00A
:101E8000FC013283238347C03093D7072093D807C0
:101E900042C0808191818816990608F44C015281D4
:101EA0004381CF01E52FF42F309709F0B1CF809116
:101EB000D5079091D6078A159B05F1F486169706EB
:101EC000D8F48091010690910206009741F48DB7F5
:101ED0009EB72091050630910606821B930BA8172A
:101EE000B90708F068CFB093D607A093D507FE01D5
:101EF0003297718360830FC0CB010E947B0D7C0100
:101F0000009709F458CFA801BE010E94EC11CE0140
:101F10000E94160EE701CE01DF91CF911F910F9124
:101F2000FF90EF90DF90CF90BF90AF909F908F90F9
:101F300008955058BB27AA270ED071C162D130F046
:101F400067D120F031F49F3F11F41EF457C10EF415
:101F5000E095E7FB4DC1E92F73D180F3BA17620713
:101F600073078407950718F071F49EF58BC10EF482
:101F7000E0950B2EBA2FA02D0B01B90190010C0199
:101F8000CA01A0011124FF27591B99F0593F50F4B1
:101F9000503E68F11A16F040A22F232F342F442709
:101FA000585FF3CF469537952795A795F040539501
:101FB000C9F77EF41F16BA0B620B730B840BBAF0D1
:101FC0009150A1F0FF0FBB1F661F771F881FC2F73C
:101FD0000EC0BA0F621F731F841F48F48795779550
:101FE0006795B795F7959E3F08F0B3CF9395880F07
:101FF00008F09927EE0F9795879508950CD00FC19B
:1020000007D140F0FED030F021F45F3F19F0F0C06E
:10201000511139C1F3C014D198F39923C9F3552351
:10202000B1F3951B550BBB27AA27621773078407CB
:1020300038F09F5F5F4F220F331F441FAA1FA9F381
:1020400033D00E2E3AF0E0E830D091505040E69573
:10205000001CCAF729D0FE2F27D0660F771F881FD4
:10206000BB1F261737074807AB07B0E809F0BB0BC3
:10207000802DBF01FF2793585F4F2AF09E3F5105E7
:1020800068F0B6C000C15F3FECF3983EDCF3869584
:1020900077956795B795F7959F5FC9F7880F911D5D
:1020A0009695879597F90895E1E0660F771F881F49
:1020B000BB1F621773078407BA0720F0621B730BFC
:1020C000840BBA0BEE1F88F7E095089504D068944E
:1020D000B111D9C00895BCD088F09F5790F0B92FA6
:1020E0009927B751A0F0D1F0660F771F881F991F6D
:1020F0001AF0BA95C9F712C0B13081F0C3D0B1E07F
:102100000895C0C0672F782F8827B85F39F0B93F8E
:10211000CCF3869577956795B395D9F73EF490956E
:102120008095709561957F4F8F4F9F4F0895E894EC
:1021300009C097FB3EF490958095709561957F4F0F
:102140008F4F9F4F9923A9F0F92F96E9BB279395BD
:10215000F695879577956795B795F111F8CFFAF4CD
:10216000BB0F11F460FF1BC06F5F7F4F8F4F9F4FFE
:1021700016C0882311F096E911C0772321F09EE85C
:10218000872F762F05C0662371F096E8862F70E0C2
:1021900060E02AF09A95660F771F881FDAF7880F9C
:1021A0009695879597F90895990F0008550FAA0BF2
:1021B000E0E8FEEF16161706E807F907C0F012165A
:1021C0001306E407F50798F0621B730B840B950B5D
:1021D00039F40A2661F0232B242B252B21F40895B2
:1021E0000A2609F4A140A6958FEF811D811D08954F
:1021F00097F99F6780E870E060E008959FEF80ECBA
:10220000089500240A94161617061806090608955C
:1022100000240A9412161306140605060895092EC2
:102220000394000C11F4882352F0BB0F40F4BF2B31
:1022300011F460FF04C06F5F7F4F8F4F9F4F089571
:1022400057FD9058440F551F59F05F3F71F0479567
:10225000880F97FB991F61F09F3F79F0879508954C
:10226000121613061406551FF2CF4695F1DF08C06B
:10227000161617061806991FF1CF86957105610588
:1022800008940895E894BB2766277727CB0197F930
:1022900008958ADF08F48FEF0895DB018F939F93F1
:1022A0000E94BB11BF91AF91A29F800D911DA39F72
:1022B000900DB29F900D11240895991B79E004C0F0
:1022C000991F961708F0961B881F7A95C9F7809575
:1022D000089597FB072E16F4009407D077FD09D0D8
:1022E0000E94C61107FC05D03EF4909581959F4F42
:1022F0000895709561957F4F0895A1E21A2EAA1B4B
:10230000BB1BFD010DC0AA1FBB1FEE1FFF1FA217A5
:10231000B307E407F50720F0A21BB30BE40BF50BA2
:10232000661F771F881F991F1A9469F7609570952B
:10233000809590959B01AC01BD01CF010895052EBC
:1023400097FB16F4009407D057FD0DD00E947D1125
:1023500007FC09D07EF490958095709561957F4F2C
:102360008F4F9F4F089550954095309521953F4F41
:102370004F4F5F4F08950E94E011A59F900DB49FAD
:10238000900DA49F800D911D11240895AA1BBB1BC5
:1023900051E107C0AA1FBB1FA617B70710F0A61B65
:1023A000B70B881F991F5A95A9F780959095BC0186
:1023B000CD010895EE0FFF1F0590F491E02D0994D3
:1023C000A29FB001B39FC001A39F01D0B29F700D27
:1023D000811D1124911D0895FB01DC0102C00190B3
:1023E0000D9241505040D8F70895FB01DC01019057
:1023F0000D920020E1F70895FB019F01E89442301F
:10240000C4F04532B4F44A3029F497FB1EF4909599
:1024100081959F4F642F77270E94C611805D8A3374
:102420000CF0895D8193CB010097A1F716F45DE272
:1024300051931082C9010C941D12DC01FC01672F1D
:1024400071917723E1F7329704C07C916D9370838B
:0E2450006291AE17BF07C8F30895F894FFCF4E
:10245E005A5A00825AB4325A5A5A5A5A0000FF0A2D
:10246E005A5A00825AB4325A5A5A5A5A0000000026
:10247E005A5A00825AB4325A5A5A5A5A0000000016
:10248E005A5A00825AB4325A5A5A5A5A0000000006
:10249E005A5A00825AB4325A5A5A5A5A00000000F6
:1024AE005A5A00825AB4325A5A5A5A5A00000000E6
:1024BE005A5A00825AB4325A5A5A5A5A00000000D6
:1024CE005A5A00825AB4325A5A5A5A5A00000000C6
:1024DE005A5A005A5AB45A5A506E50780000000593
:1024EE005A5A005A5AB45A5A465A465A0000FF05CA
:1024FE005A5A005A5AB45A5A464646500000FF05D8
:10250E005A5A005A5AB45A5A643C6446000000059E
:10251E005A5A005A5AB45A5A6E5A6E5A0000FF0549
:10252E005A5A005A5AB45A5A6E646E6E0000FF051B
:10253E005A5A005A5AB45A5A5A5A5A5A0000000055
:10254E005A5A005A5AB45A5A5A5A5A5A0000000045
:10255E005A5A005A5AB45A5A646E647800000005EA
:10256E005A5A005A5AB45A5A6E5A6E5A0000FF05F9
:10257E005A5A005A5AB45A5A6E466E500000FF0507
:10258E005A5A005A5AB45A5A501E50460000000564
:10259E005A5A005A5AB45A5A465A465A0000FF0519
:1025AE005A5A005A5AB45A5A4664466E0000FF05EB
:1025BE005A5A005A5AB45A5A5A5A5A5A00000000D5
:1025CE005A5A005A5AB45A5A5A5A5A5A00000000C5
:1025DE005A5A005A5AB45A5A5F6E5578000000057E
:1025EE005A5A005A5AB45A5A645A505A0000FF05A1
:1025FE005A5A005A5AB45A5A6446505000000005AE
:10260E005A5A005A5AB45A5A553C5F460000FF05B2
:10261E005A5A005A5AB45A5A505A645A000000056F
:10262E005A5A005A5AB45A5A5064646E0000FF0542
:10263E005A5A005A5AB45A5A5A5A5A5A0000000054
:10264E005A5A005A5AB45A5A5A5A5A5A0000000044
:10265E005A5A005A5AB45A5A5F3C55460000000561
:10266E005A5A005A5AB45A5A645A505A0000FF0520
:10267E005A5A005A5AB45A5A6464506E00000005F1
:10268E005A5A005A5AB45A5A556E5F780000FF05CE
:10269E005A5A005A5AB45A5A505A645A00000005EF
:1026AE005A5A005A5AB45A5A504664500000FF05FE
:1026BE005A5A005A5AB45A5A5A5A5A5A00000000D4
:1026CE005A5A005A5AB45A5A5A5A5A5A00000000C4
:1026DE005A5A785A5A3C5A5A5A5A5A5A0000000AAA
:1026EE00645A78826E3C32465A5A5A5A00FF000596
:1026FE005A5A785A5A3C5A5A5A5A5A5A00FF000590
:10270E00505A78826E3C32465A5A5A5A0000000588
:10271E005A5A785A5A3C5A5A5A5A5A5A00FF000A6A
:10272E005A5A78826E3C32465A5A5A5A00FF00055F
:10273E005A5A005A5AB45A5A5A5A5A5A0000000053
:10274E005A5A005A5AB45A5A5A5A5A5A0000000043
:10275E005A7878825AB45A5A5A5A5A5AFFFF000770
:10276E005A78785A5AB45A5A5A5A5A5AFFFF000788
:10277E005A5A005A5AB45A5A5A5A5A5A0000000013
:10278E005A5A005A5AB45A5A5A5A5A5A0000000003
:10279E005A5A005A5AB45A5A5A5A5A5A00000000F3
:1027AE005A5A005A5AB45A5A5A5A5A5A00000000E3
:1027BE005A5A005A5AB45A5A5A5A5A5A00000000D3
:1027CE005A5A005A5AB45A5A5A5A5A5A00000000C3
:1027DE005A5A7882463C326E5A5A5A5A0000FF0AAA
:1027EE005A5A78826E3C32465A5A5A5A0000FF059F
:1027FE005A5A7882463C326E5A5A5A5A0000FF058F
:10280E005A5A78826E3C32465A5A5A5A0000FF057E
:10281E005A5A78826E3C32465A5A5A5A0000FF0F64
:10282E005A5A5A826E5A32465A5A5A5A0000FF0360
:10283E005A5A78826E3C32465A5A5A5A0000FF0350
:10284E005A5A5A826E5A32465A5A5A5A0000FF0340
:10285E005A3C005A5A3C325A5A5A5A5AFF000007EA
:10286E005A3C005A5A3C5A5A5A5A5A5AFF000007B2
:10287E005A5A005A5AB45A5A5A5A5A5A0000000012
:10288E005A5A005A5AB45A5A5A5A5A5A0000000002
:10289E005A5A005A5AB45A5A5A5A5A5A00000000F2
:1028AE005A5A005A5AB45A5A5A5A5A5A00000000E2
:1028BE005A5A005A5AB45A5A5A5A5A5A00000000D2
:1028CE005A5A005A5AB45A5A5A5A5A5A00000000C2
:1028DE005A5A5A826EB4325A5A5A5A5A0000000A3A
:1028EE005A5A5A826EB4325A5A5A5A5A0000FF0530
:1028FE005A5A5A826EB4325A5A5A5A5A0000FF190C
:10290E005A5A5A825AB4325A5A5A5A5A0000000522
:10291E00288C5A465AB45A5A5A5A5A5A0000FF0A22
:10292E00288C5A465AB45A5A5A5A5A5A0000FF1903
:10293E005A5A005A5AB45A5A5A5A5A5A0000000051
:10294E005A5A005A5AB45A5A5A5A5A5A0000000041
:10295E004D0000D9078000303000234D0023454D37
:10296E0000235054002345500023510023430046BA
:10297E000023450000000000E80BDB098A0BB90BB1
:04298E009D0BDD0BB5
:00000001FF
